{
  "contractName": "SingleRegistry",
  "abi": [
    {
      "constant": true,
      "inputs": [],
      "name": "name",
      "outputs": [
        {
          "name": "",
          "type": "string"
        }
      ],
      "payable": false,
      "stateMutability": "view",
      "type": "function"
    },
    {
      "constant": true,
      "inputs": [
        {
          "name": "",
          "type": "uint256"
        }
      ],
      "name": "subjects",
      "outputs": [
        {
          "name": "",
          "type": "bytes32"
        }
      ],
      "payable": false,
      "stateMutability": "view",
      "type": "function"
    },
    {
      "constant": true,
      "inputs": [],
      "name": "owner",
      "outputs": [
        {
          "name": "",
          "type": "address"
        }
      ],
      "payable": false,
      "stateMutability": "view",
      "type": "function"
    },
    {
      "constant": true,
      "inputs": [
        {
          "name": "",
          "type": "uint256"
        }
      ],
      "name": "challenges",
      "outputs": [
        {
          "name": "rewardPool",
          "type": "uint256"
        },
        {
          "name": "challenger",
          "type": "address"
        },
        {
          "name": "resolved",
          "type": "bool"
        },
        {
          "name": "stake",
          "type": "uint256"
        },
        {
          "name": "totalTokens",
          "type": "uint256"
        },
        {
          "name": "isSubject",
          "type": "bool"
        },
        {
          "name": "subject",
          "type": "bytes32"
        }
      ],
      "payable": false,
      "stateMutability": "view",
      "type": "function"
    },
    {
      "constant": true,
      "inputs": [
        {
          "name": "",
          "type": "bytes32"
        }
      ],
      "name": "listings",
      "outputs": [
        {
          "name": "applicationExpiry",
          "type": "uint256"
        },
        {
          "name": "whitelisted",
          "type": "bool"
        },
        {
          "name": "owner",
          "type": "address"
        },
        {
          "name": "unstakedDeposit",
          "type": "uint256"
        },
        {
          "name": "challengeID",
          "type": "uint256"
        },
        {
          "name": "subject",
          "type": "bytes32"
        }
      ],
      "payable": false,
      "stateMutability": "view",
      "type": "function"
    },
    {
      "constant": true,
      "inputs": [],
      "name": "parameterizer",
      "outputs": [
        {
          "name": "",
          "type": "address"
        }
      ],
      "payable": false,
      "stateMutability": "view",
      "type": "function"
    },
    {
      "constant": true,
      "inputs": [],
      "name": "token",
      "outputs": [
        {
          "name": "",
          "type": "address"
        }
      ],
      "payable": false,
      "stateMutability": "view",
      "type": "function"
    },
    {
      "constant": true,
      "inputs": [],
      "name": "voting",
      "outputs": [
        {
          "name": "",
          "type": "address"
        }
      ],
      "payable": false,
      "stateMutability": "view",
      "type": "function"
    },
    {
      "inputs": [
        {
          "name": "_tokenAddr",
          "type": "address"
        },
        {
          "name": "_plcrAddr",
          "type": "address"
        },
        {
          "name": "_paramsAddr",
          "type": "address"
        },
        {
          "name": "_name",
          "type": "string"
        }
      ],
      "payable": false,
      "stateMutability": "nonpayable",
      "type": "constructor"
    },
    {
      "anonymous": false,
      "inputs": [
        {
          "indexed": true,
          "name": "listingHash",
          "type": "bytes32"
        },
        {
          "indexed": true,
          "name": "subjectHash",
          "type": "bytes32"
        },
        {
          "indexed": false,
          "name": "deposit",
          "type": "uint256"
        },
        {
          "indexed": false,
          "name": "appEndDate",
          "type": "uint256"
        },
        {
          "indexed": false,
          "name": "data",
          "type": "string"
        },
        {
          "indexed": true,
          "name": "applicant",
          "type": "address"
        }
      ],
      "name": "_Application",
      "type": "event"
    },
    {
      "anonymous": false,
      "inputs": [
        {
          "indexed": true,
          "name": "listingHash",
          "type": "bytes32"
        },
        {
          "indexed": false,
          "name": "challengeID",
          "type": "uint256"
        },
        {
          "indexed": false,
          "name": "data",
          "type": "string"
        },
        {
          "indexed": false,
          "name": "commitEndDate",
          "type": "uint256"
        },
        {
          "indexed": false,
          "name": "revealEndDate",
          "type": "uint256"
        },
        {
          "indexed": true,
          "name": "challenger",
          "type": "address"
        }
      ],
      "name": "_Challenge",
      "type": "event"
    },
    {
      "anonymous": false,
      "inputs": [
        {
          "indexed": true,
          "name": "listingHash",
          "type": "bytes32"
        },
        {
          "indexed": true,
          "name": "subjectHash",
          "type": "bytes32"
        },
        {
          "indexed": false,
          "name": "challengeID",
          "type": "uint256"
        },
        {
          "indexed": false,
          "name": "data",
          "type": "string"
        },
        {
          "indexed": false,
          "name": "commitEndDate",
          "type": "uint256"
        },
        {
          "indexed": false,
          "name": "revealEndDate",
          "type": "uint256"
        },
        {
          "indexed": true,
          "name": "challenger",
          "type": "address"
        }
      ],
      "name": "_ChallengeSubject",
      "type": "event"
    },
    {
      "anonymous": false,
      "inputs": [
        {
          "indexed": true,
          "name": "listingHash",
          "type": "bytes32"
        },
        {
          "indexed": true,
          "name": "subjectHash",
          "type": "bytes32"
        },
        {
          "indexed": false,
          "name": "added",
          "type": "uint256"
        },
        {
          "indexed": false,
          "name": "newTotal",
          "type": "uint256"
        },
        {
          "indexed": false,
          "name": "newSubjectTotal",
          "type": "uint256"
        },
        {
          "indexed": true,
          "name": "owner",
          "type": "address"
        }
      ],
      "name": "_Deposit",
      "type": "event"
    },
    {
      "anonymous": false,
      "inputs": [
        {
          "indexed": true,
          "name": "listingHash",
          "type": "bytes32"
        },
        {
          "indexed": true,
          "name": "subjectHash",
          "type": "bytes32"
        },
        {
          "indexed": false,
          "name": "withdrew",
          "type": "uint256"
        },
        {
          "indexed": false,
          "name": "newTotal",
          "type": "uint256"
        },
        {
          "indexed": false,
          "name": "newSubjectTotal",
          "type": "uint256"
        },
        {
          "indexed": true,
          "name": "owner",
          "type": "address"
        }
      ],
      "name": "_Withdrawal",
      "type": "event"
    },
    {
      "anonymous": false,
      "inputs": [
        {
          "indexed": true,
          "name": "listingHash",
          "type": "bytes32"
        }
      ],
      "name": "_ApplicationWhitelisted",
      "type": "event"
    },
    {
      "anonymous": false,
      "inputs": [
        {
          "indexed": true,
          "name": "listingHash",
          "type": "bytes32"
        },
        {
          "indexed": true,
          "name": "subjectHash",
          "type": "bytes32"
        }
      ],
      "name": "_ApplicationSubjectRemoved",
      "type": "event"
    },
    {
      "anonymous": false,
      "inputs": [
        {
          "indexed": true,
          "name": "listingHash",
          "type": "bytes32"
        },
        {
          "indexed": true,
          "name": "subjectHash",
          "type": "bytes32"
        }
      ],
      "name": "_ListingSubjectRemoved",
      "type": "event"
    },
    {
      "anonymous": false,
      "inputs": [
        {
          "indexed": true,
          "name": "listingHash",
          "type": "bytes32"
        },
        {
          "indexed": true,
          "name": "subjectHash",
          "type": "bytes32"
        }
      ],
      "name": "_SubjectListingWithdrawn",
      "type": "event"
    },
    {
      "anonymous": false,
      "inputs": [
        {
          "indexed": true,
          "name": "listingHash",
          "type": "bytes32"
        },
        {
          "indexed": true,
          "name": "subjectHash",
          "type": "bytes32"
        }
      ],
      "name": "_TouchAndRemovedSubject",
      "type": "event"
    },
    {
      "anonymous": false,
      "inputs": [
        {
          "indexed": true,
          "name": "listingHash",
          "type": "bytes32"
        }
      ],
      "name": "_ApplicationRemoved",
      "type": "event"
    },
    {
      "anonymous": false,
      "inputs": [
        {
          "indexed": true,
          "name": "listingHash",
          "type": "bytes32"
        }
      ],
      "name": "_ListingRemoved",
      "type": "event"
    },
    {
      "anonymous": false,
      "inputs": [
        {
          "indexed": true,
          "name": "listingHash",
          "type": "bytes32"
        }
      ],
      "name": "_ListingWithdrawn",
      "type": "event"
    },
    {
      "anonymous": false,
      "inputs": [
        {
          "indexed": true,
          "name": "listingHash",
          "type": "bytes32"
        }
      ],
      "name": "_TouchAndRemoved",
      "type": "event"
    },
    {
      "anonymous": false,
      "inputs": [
        {
          "indexed": true,
          "name": "listingHash",
          "type": "bytes32"
        },
        {
          "indexed": true,
          "name": "challengeID",
          "type": "uint256"
        },
        {
          "indexed": false,
          "name": "rewardPool",
          "type": "uint256"
        },
        {
          "indexed": false,
          "name": "totalTokens",
          "type": "uint256"
        }
      ],
      "name": "_ChallengeFailed",
      "type": "event"
    },
    {
      "anonymous": false,
      "inputs": [
        {
          "indexed": true,
          "name": "listingHash",
          "type": "bytes32"
        },
        {
          "indexed": true,
          "name": "challengeID",
          "type": "uint256"
        },
        {
          "indexed": false,
          "name": "rewardPool",
          "type": "uint256"
        },
        {
          "indexed": false,
          "name": "totalTokens",
          "type": "uint256"
        }
      ],
      "name": "_ChallengeSucceeded",
      "type": "event"
    },
    {
      "constant": false,
      "inputs": [
        {
          "name": "_subject",
          "type": "string"
        }
      ],
      "name": "newSubject",
      "outputs": [],
      "payable": false,
      "stateMutability": "nonpayable",
      "type": "function"
    },
    {
      "constant": false,
      "inputs": [
        {
          "name": "_listingHash",
          "type": "bytes32"
        },
        {
          "name": "_subjectHash",
          "type": "bytes32"
        },
        {
          "name": "_amount",
          "type": "uint256"
        },
        {
          "name": "_data",
          "type": "string"
        }
      ],
      "name": "apply",
      "outputs": [],
      "payable": false,
      "stateMutability": "nonpayable",
      "type": "function"
    },
    {
      "constant": false,
      "inputs": [
        {
          "name": "_listingHash",
          "type": "bytes32"
        },
        {
          "name": "_subjectHash",
          "type": "bytes32"
        },
        {
          "name": "_amount",
          "type": "uint256"
        }
      ],
      "name": "deposit",
      "outputs": [],
      "payable": false,
      "stateMutability": "nonpayable",
      "type": "function"
    },
    {
      "constant": false,
      "inputs": [
        {
          "name": "_listingHash",
          "type": "bytes32"
        },
        {
          "name": "_subjectHash",
          "type": "bytes32"
        },
        {
          "name": "_amount",
          "type": "uint256"
        }
      ],
      "name": "withdraw",
      "outputs": [],
      "payable": false,
      "stateMutability": "nonpayable",
      "type": "function"
    },
    {
      "constant": false,
      "inputs": [
        {
          "name": "_listingHash",
          "type": "bytes32"
        },
        {
          "name": "_subjectHash",
          "type": "bytes32"
        }
      ],
      "name": "exitSubject",
      "outputs": [],
      "payable": false,
      "stateMutability": "nonpayable",
      "type": "function"
    },
    {
      "constant": false,
      "inputs": [
        {
          "name": "_listingHash",
          "type": "bytes32"
        }
      ],
      "name": "exit",
      "outputs": [],
      "payable": false,
      "stateMutability": "nonpayable",
      "type": "function"
    },
    {
      "constant": false,
      "inputs": [
        {
          "name": "_listingHash",
          "type": "bytes32"
        },
        {
          "name": "_data",
          "type": "string"
        }
      ],
      "name": "challenge",
      "outputs": [
        {
          "name": "challengeID",
          "type": "uint256"
        }
      ],
      "payable": false,
      "stateMutability": "nonpayable",
      "type": "function"
    },
    {
      "constant": false,
      "inputs": [
        {
          "name": "_listingHash",
          "type": "bytes32"
        },
        {
          "name": "_subjectHash",
          "type": "bytes32"
        },
        {
          "name": "_data",
          "type": "string"
        }
      ],
      "name": "challengeSubject",
      "outputs": [
        {
          "name": "challengeID",
          "type": "uint256"
        }
      ],
      "payable": false,
      "stateMutability": "nonpayable",
      "type": "function"
    },
    {
      "constant": false,
      "inputs": [
        {
          "name": "_listingHash",
          "type": "bytes32"
        }
      ],
      "name": "updateStatus",
      "outputs": [],
      "payable": false,
      "stateMutability": "nonpayable",
      "type": "function"
    },
    {
      "constant": true,
      "inputs": [
        {
          "name": "_listingHash",
          "type": "bytes32"
        },
        {
          "name": "_subjectHash",
          "type": "bytes32"
        }
      ],
      "name": "canSubjectBeWhitelisted",
      "outputs": [
        {
          "name": "",
          "type": "bool"
        }
      ],
      "payable": false,
      "stateMutability": "view",
      "type": "function"
    },
    {
      "constant": true,
      "inputs": [
        {
          "name": "_listingHash",
          "type": "bytes32"
        }
      ],
      "name": "challengeExists",
      "outputs": [
        {
          "name": "",
          "type": "bool"
        }
      ],
      "payable": false,
      "stateMutability": "view",
      "type": "function"
    },
    {
      "constant": true,
      "inputs": [
        {
          "name": "_listingHash",
          "type": "bytes32"
        }
      ],
      "name": "challengeCanBeResolved",
      "outputs": [
        {
          "name": "",
          "type": "bool"
        }
      ],
      "payable": false,
      "stateMutability": "view",
      "type": "function"
    },
    {
      "constant": true,
      "inputs": [
        {
          "name": "_subject",
          "type": "bytes32"
        }
      ],
      "name": "isValidSubject",
      "outputs": [
        {
          "name": "valid",
          "type": "bool"
        }
      ],
      "payable": false,
      "stateMutability": "view",
      "type": "function"
    },
    {
      "constant": true,
      "inputs": [
        {
          "name": "_listingHash",
          "type": "bytes32"
        },
        {
          "name": "_subjectHash",
          "type": "bytes32"
        }
      ],
      "name": "isSubjectWhitelisted",
      "outputs": [
        {
          "name": "whitelisted",
          "type": "bool"
        }
      ],
      "payable": false,
      "stateMutability": "view",
      "type": "function"
    },
    {
      "constant": true,
      "inputs": [
        {
          "name": "_listingHash",
          "type": "bytes32"
        }
      ],
      "name": "isWhitelisted",
      "outputs": [
        {
          "name": "whitelisted",
          "type": "bool"
        }
      ],
      "payable": false,
      "stateMutability": "view",
      "type": "function"
    },
    {
      "constant": true,
      "inputs": [
        {
          "name": "_listingHash",
          "type": "bytes32"
        }
      ],
      "name": "appWasMade",
      "outputs": [
        {
          "name": "exists",
          "type": "bool"
        }
      ],
      "payable": false,
      "stateMutability": "view",
      "type": "function"
    },
    {
      "constant": true,
      "inputs": [
        {
          "name": "_listingHash",
          "type": "bytes32"
        },
        {
          "name": "_subjectHash",
          "type": "bytes32"
        }
      ],
      "name": "subjectAppWasMade",
      "outputs": [
        {
          "name": "exists",
          "type": "bool"
        }
      ],
      "payable": false,
      "stateMutability": "view",
      "type": "function"
    },
    {
      "constant": true,
      "inputs": [
        {
          "name": "_challengeID",
          "type": "uint256"
        }
      ],
      "name": "determineReward",
      "outputs": [
        {
          "name": "",
          "type": "uint256"
        }
      ],
      "payable": false,
      "stateMutability": "view",
      "type": "function"
    },
    {
      "constant": true,
      "inputs": [
        {
          "name": "_listingHash",
          "type": "bytes32"
        },
        {
          "name": "_subjectHash",
          "type": "bytes32"
        }
      ],
      "name": "listingSubjects",
      "outputs": [
        {
          "name": "",
          "type": "uint256"
        },
        {
          "name": "",
          "type": "bool"
        },
        {
          "name": "",
          "type": "uint256"
        }
      ],
      "payable": false,
      "stateMutability": "view",
      "type": "function"
    }
  ],
  "bytecode": "0x6080604052604080519081016040528060405180807f416c676562726100000000000000000000000000000000000000000000000000815250600701905060405180910390206000191660001916815260200160405180807f4368656d697374727900000000000000000000000000000000000000000000008152506009019050604051809103902060001916600019168152506001906002620000a59291906200021c565b50348015620000b357600080fd5b5060405162005b4f38038062005b4f83398101806040528101908080519060200190929190805190602001909291908051906020019092919080518201929190505050336000806101000a81548173ffffffffffffffffffffffffffffffffffffffff021916908373ffffffffffffffffffffffffffffffffffffffff16021790555083600460006101000a81548173ffffffffffffffffffffffffffffffffffffffff021916908373ffffffffffffffffffffffffffffffffffffffff16021790555082600560006101000a81548173ffffffffffffffffffffffffffffffffffffffff021916908373ffffffffffffffffffffffffffffffffffffffff16021790555081600660006101000a81548173ffffffffffffffffffffffffffffffffffffffff021916908373ffffffffffffffffffffffffffffffffffffffff16021790555080600790805190602001906200021192919062000274565b50505050506200034b565b82805482825590600052602060002090810192821562000261579160200282015b82811115620002605782518290600019169055916020019190600101906200023d565b5b509050620002709190620002fb565b5090565b828054600181600116156101000203166002900490600052602060002090601f016020900481019282601f10620002b757805160ff1916838001178555620002e8565b82800160010185558215620002e8579182015b82811115620002e7578251825591602001919060010190620002ca565b5b509050620002f7919062000323565b5090565b6200032091905b808211156200031c57600081600090555060010162000302565b5090565b90565b6200034891905b80821115620003445760008160009055506001016200032a565b5090565b90565b6157f4806200035b6000396000f30060806040526004361061015f576000357c0100000000000000000000000000000000000000000000000000000000900463ffffffff16806301a5e3fe1461016457806304b5b1f9146101ad57806306449d541461021857806306fdde03146102575780630ca36263146102e75780631b7bbecb146103185780632c7424af1461036157806343cffefe146103aa5780634ae6001a1461040757806377609a411461045e5780637a1cae3d146104a757806387b3823d146104fe5780638a59eb56146105675780638cf8151f146105985780638da5cb5b146105e15780638f1d377614610638578063983aab09146106df5780639844b73f14610736578063a74fc92b1461077f578063c18b8db4146107e4578063c8187cf114610884578063cf0d9098146108c5578063e1e3f9151461090e578063e1ec5e4f14610965578063fc0c546a146109c6578063fce1ccca14610a1d578063fe9c9efe14610a74575b600080fd5b34801561017057600080fd5b506101936004803603810190808035600019169060200190929190505050610abd565b604051808215151515815260200191505060405180910390f35b3480156101b957600080fd5b5061020260048036038101908080356000191690602001909291908035600019169060200190929190803590602001908201803590602001919091929391929390505050610af2565b6040518082815260200191505060405180910390f35b34801561022457600080fd5b506102556004803603810190808035600019169060200190929190803560001916906020019092919050505061194d565b005b34801561026357600080fd5b5061026c611bed565b6040518080602001828103825283818151815260200191508051906020019080838360005b838110156102ac578082015181840152602081019050610291565b50505050905090810190601f1680156102d95780820380516001836020036101000a031916815260200191505b509250505060405180910390f35b3480156102f357600080fd5b506103166004803603810190808035600019169060200190929190505050611c8b565b005b34801561032457600080fd5b506103476004803603810190808035600019169060200190929190505050611f23565b604051808215151515815260200191505060405180910390f35b34801561036d57600080fd5b5061038c60048036038101908080359060200190929190505050611f9e565b60405180826000191660001916815260200191505060405180910390f35b3480156103b657600080fd5b506103f16004803603810190808035600019169060200190929190803590602001908201803590602001919091929391929390505050611fc1565b6040518082815260200191505060405180910390f35b34801561041357600080fd5b5061044460048036038101908080356000191690602001909291908035600019169060200190929190505050612b9c565b604051808215151515815260200191505060405180910390f35b34801561046a57600080fd5b5061048d6004803603810190808035600019169060200190929190505050612be3565b604051808215151515815260200191505060405180910390f35b3480156104b357600080fd5b506104e460048036038101908080356000191690602001909291908035600019169060200190929190505050612cf4565b604051808215151515815260200191505060405180910390f35b34801561050a57600080fd5b50610565600480360381019080803590602001908201803590602001908080601f0160208091040260200160405190810160405280939291908181526020018383808284378201915050505050509192919290505050612de8565b005b34801561057357600080fd5b506105966004803603810190808035600019169060200190929190505050612f9b565b005b3480156105a457600080fd5b506105c76004803603810190808035600019169060200190929190505050613100565b604051808215151515815260200191505060405180910390f35b3480156105ed57600080fd5b506105f661312a565b604051808273ffffffffffffffffffffffffffffffffffffffff1673ffffffffffffffffffffffffffffffffffffffff16815260200191505060405180910390f35b34801561064457600080fd5b506106636004803603810190808035906020019092919050505061314f565b604051808881526020018773ffffffffffffffffffffffffffffffffffffffff1673ffffffffffffffffffffffffffffffffffffffff1681526020018615151515815260200185815260200184815260200183151515158152602001826000191660001916815260200197505050505050505060405180910390f35b3480156106eb57600080fd5b5061071c600480360381019080803560001916906020019092919080356000191690602001909291905050506131cb565b604051808215151515815260200191505060405180910390f35b34801561074257600080fd5b5061077d6004803603810190808035600019169060200190929190803560001916906020019092919080359060200190929190505050613251565b005b34801561078b57600080fd5b506107bc600480360381019080803560001916906020019092919080356000191690602001909291905050506135fd565b6040518084815260200183151515158152602001828152602001935050505060405180910390f35b3480156107f057600080fd5b5061081360048036038101908080356000191690602001909291905050506136cd565b60405180878152602001861515151581526020018573ffffffffffffffffffffffffffffffffffffffff1673ffffffffffffffffffffffffffffffffffffffff1681526020018481526020018381526020018260001916600019168152602001965050505050505060405180910390f35b34801561089057600080fd5b506108af60048036038101908080359060200190929190505050613736565b6040518082815260200191505060405180910390f35b3480156108d157600080fd5b5061090c600480360381019080803560001916906020019092919080356000191690602001909291908035906020019092919050505061396b565b005b34801561091a57600080fd5b50610923613fff565b604051808273ffffffffffffffffffffffffffffffffffffffff1673ffffffffffffffffffffffffffffffffffffffff16815260200191505060405180910390f35b34801561097157600080fd5b506109c46004803603810190808035600019169060200190929190803560001916906020019092919080359060200190929190803590602001908201803590602001919091929391929390505050614025565b005b3480156109d257600080fd5b506109db614a9b565b604051808273ffffffffffffffffffffffffffffffffffffffff1673ffffffffffffffffffffffffffffffffffffffff16815260200191505060405180910390f35b348015610a2957600080fd5b50610a32614ac1565b604051808273ffffffffffffffffffffffffffffffffffffffff1673ffffffffffffffffffffffffffffffffffffffff16815260200191505060405180910390f35b348015610a8057600080fd5b50610aa36004803603810190808035600019169060200190929190505050614ae7565b604051808215151515815260200191505060405180910390f35b600060036000836000191660001916815260200190815260200160002060010160009054906101000a900460ff169050919050565b600080600080600080600360008b600019166000191681526020019081526020016000209450600660009054906101000a900473ffffffffffffffffffffffffffffffffffffffff1673ffffffffffffffffffffffffffffffffffffffff1663693ec85e6040518163ffffffff167c010000000000000000000000000000000000000000000000000000000002815260040180806020018281038252600a8152602001807f6d696e4465706f73697400000000000000000000000000000000000000000000815250602001915050602060405180830381600087803b158015610bda57600080fd5b505af1158015610bee573d6000803e3d6000fd5b505050506040513d6020811015610c0457600080fd5b81019080805190602001909291905050509350600460009054906101000a900473ffffffffffffffffffffffffffffffffffffffff1673ffffffffffffffffffffffffffffffffffffffff1663095ea7b330866040518363ffffffff167c0100000000000000000000000000000000000000000000000000000000028152600401808373ffffffffffffffffffffffffffffffffffffffff1673ffffffffffffffffffffffffffffffffffffffff16815260200182815260200192505050602060405180830381600087803b158015610cdc57600080fd5b505af1158015610cf0573d6000803e3d6000fd5b505050506040513d6020811015610d0657600080fd5b81019080805190602001909291905050501515610db1576040517f08c379a00000000000000000000000000000000000000000000000000000000081526004018080602001828103825260278152602001807f436f756c646e277420617070726f766520746f6b656e20746f2074686973207281526020017f656769737472790000000000000000000000000000000000000000000000000081525060400191505060405180910390fd5b610dbb8a8a612b9c565b80610df057508460050160008a6000191660001916815260200190815260200160002060010160009054906101000a900460ff165b1515610e8a576040517f08c379a000000000000000000000000000000000000000000000000000000000815260040180806020018281038252602d8152602001807f54686973206170706c69636174696f6e206973206e6f7420726561647920746f81526020017f206265206368616c6c656e67650000000000000000000000000000000000000081525060400191505060405180910390fd5b600085600301541480610ec15750600260008660030154815260200190815260200160002060010160149054906101000a900460ff165b1515610f5b576040517f08c379a00000000000000000000000000000000000000000000000000000000081526004018080602001828103825260368152602001807f54686973206170706c69636174696f6e20697320696e20746865206d6964646c81526020017f65206f6620616e6f74686572206368616c6c656e67650000000000000000000081525060400191505060405180910390fd5b838560050160008b60001916600019168152602001908152602001600020600201541015610fcc57610f8d8a8a614b4c565b88600019168a600019167fdfc4c02c813720e6a7a646e3b62030a3fdee8f9e93961b9854e5d4ef4435698860405160405180910390a360009550611940565b600560009054906101000a900473ffffffffffffffffffffffffffffffffffffffff1673ffffffffffffffffffffffffffffffffffffffff166332ed3d60600660009054906101000a900473ffffffffffffffffffffffffffffffffffffffff1673ffffffffffffffffffffffffffffffffffffffff1663693ec85e6040518163ffffffff167c010000000000000000000000000000000000000000000000000000000002815260040180806020018281038252600a8152602001807f766f746551756f72756d00000000000000000000000000000000000000000000815250602001915050602060405180830381600087803b1580156110cc57600080fd5b505af11580156110e0573d6000803e3d6000fd5b505050506040513d60208110156110f657600080fd5b8101908080519060200190929190505050600660009054906101000a900473ffffffffffffffffffffffffffffffffffffffff1673ffffffffffffffffffffffffffffffffffffffff1663693ec85e6040518163ffffffff167c010000000000000000000000000000000000000000000000000000000002815260040180806020018281038252600e8152602001807f636f6d6d697453746167654c656e000000000000000000000000000000000000815250602001915050602060405180830381600087803b1580156111c957600080fd5b505af11580156111dd573d6000803e3d6000fd5b505050506040513d60208110156111f357600080fd5b8101908080519060200190929190505050600660009054906101000a900473ffffffffffffffffffffffffffffffffffffffff1673ffffffffffffffffffffffffffffffffffffffff1663693ec85e6040518163ffffffff167c010000000000000000000000000000000000000000000000000000000002815260040180806020018281038252600e8152602001807f72657665616c53746167654c656e000000000000000000000000000000000000815250602001915050602060405180830381600087803b1580156112c657600080fd5b505af11580156112da573d6000803e3d6000fd5b505050506040513d60208110156112f057600080fd5b81019080805190602001909291905050506040518463ffffffff167c0100000000000000000000000000000000000000000000000000000000028152600401808481526020018381526020018281526020019350505050602060405180830381600087803b15801561136157600080fd5b505af1158015611375573d6000803e3d6000fd5b505050506040513d602081101561138b57600080fd5b8101908080519060200190929190505050925060e060405190810160405280606486600660009054906101000a900473ffffffffffffffffffffffffffffffffffffffff1673ffffffffffffffffffffffffffffffffffffffff1663693ec85e6040518163ffffffff167c010000000000000000000000000000000000000000000000000000000002815260040180806020018281038252600f8152602001807f64697370656e736174696f6e5063740000000000000000000000000000000000815250602001915050602060405180830381600087803b15801561146f57600080fd5b505af1158015611483573d6000803e3d6000fd5b505050506040513d602081101561149957600080fd5b8101908080519060200190929190505050606403028115156114b757fe5b0481526020013373ffffffffffffffffffffffffffffffffffffffff168152602001600015158152602001858152602001600081526020016001151581526020018a60001916815250600260008581526020019081526020016000206000820151816000015560208201518160010160006101000a81548173ffffffffffffffffffffffffffffffffffffffff021916908373ffffffffffffffffffffffffffffffffffffffff16021790555060408201518160010160146101000a81548160ff021916908315150217905550606082015181600201556080820151816003015560a08201518160040160006101000a81548160ff02191690831515021790555060c08201518160050190600019169055905050828560030181905550838560050160008b6000191660001916815260200190815260200160002060020160008282540392505081905550838560020160008282540392505081905550600460009054906101000a900473ffffffffffffffffffffffffffffffffffffffff1673ffffffffffffffffffffffffffffffffffffffff166323b872dd3330876040518463ffffffff167c0100000000000000000000000000000000000000000000000000000000028152600401808473ffffffffffffffffffffffffffffffffffffffff1673ffffffffffffffffffffffffffffffffffffffff1681526020018373ffffffffffffffffffffffffffffffffffffffff1673ffffffffffffffffffffffffffffffffffffffff1681526020018281526020019350505050602060405180830381600087803b15801561170d57600080fd5b505af1158015611721573d6000803e3d6000fd5b505050506040513d602081101561173757600080fd5b810190808051906020019092919050505015156117bc576040517f08c379a00000000000000000000000000000000000000000000000000000000081526004018080602001828103825260178152602001807f436f756c646e2774207472616e7366657220746f6b656e00000000000000000081525060200191505060405180910390fd5b600560009054906101000a900473ffffffffffffffffffffffffffffffffffffffff1673ffffffffffffffffffffffffffffffffffffffff16636148fed5846040518263ffffffff167c01000000000000000000000000000000000000000000000000000000000281526004018082815260200191505060a060405180830381600087803b15801561184d57600080fd5b505af1158015611861573d6000803e3d6000fd5b505050506040513d60a081101561187757600080fd5b810190808051906020019092919080519060200190929190805190602001909291908051906020019092919080519060200190929190505050505050915091503373ffffffffffffffffffffffffffffffffffffffff168a600019167ff98a08756a3603420a080d66764f73deb1e30896c315cfed03e17f88f5eb30f7858b8b8787604051808681526020018060200184815260200183815260200182810382528686828181526020019250808284378201915050965050505050505060405180910390a38295505b5050505050949350505050565b600060036000846000191660001916815260200190815260200160002090508060010160019054906101000a900473ffffffffffffffffffffffffffffffffffffffff1673ffffffffffffffffffffffffffffffffffffffff163373ffffffffffffffffffffffffffffffffffffffff16141515611a59576040517f08c379a000000000000000000000000000000000000000000000000000000000815260040180806020018281038252602e8152602001807f596f7520646f6e27742068617665207065726d697373696f6e20746f2072756e81526020017f20746869732066756e6374696f6e00000000000000000000000000000000000081525060400191505060405180910390fd5b611a6383836131cb565b1515611ad7576040517f08c379a000000000000000000000000000000000000000000000000000000000815260040180806020018281038252601f8152602001807f54686973207375626a656374207761736e27742077686974656c69737465640081525060200191505060405180910390fd5b600081600301541480611b0e5750600260008260030154815260200190815260200160002060010160149054906101000a900460ff165b1515611ba8576040517f08c379a00000000000000000000000000000000000000000000000000000000081526004018080602001828103825260348152602001807f54686973206c697374696e6720697320696e20746865206d6964646c65206f6681526020017f2061206368616c6c656e67652073657373696f6e00000000000000000000000081525060400191505060405180910390fd5b611bb28383614b4c565b816000191683600019167f394ea42ce5261251e8bca987679de0ac95bee5fb4bbc759b3deb1715fd88176460405160405180910390a3505050565b60078054600181600116156101000203166002900480601f016020809104026020016040519081016040528092919081815260200182805460018160011615610100020316600290048015611c835780601f10611c5857610100808354040283529160200191611c83565b820191906000526020600020905b815481529060010190602001808311611c6657829003601f168201915b505050505081565b600060036000836000191660001916815260200190815260200160002090508060010160019054906101000a900473ffffffffffffffffffffffffffffffffffffffff1673ffffffffffffffffffffffffffffffffffffffff163373ffffffffffffffffffffffffffffffffffffffff16141515611d97576040517f08c379a000000000000000000000000000000000000000000000000000000000815260040180806020018281038252602e8152602001807f596f7520646f6e27742068617665207065726d697373696f6e20746f2072756e81526020017f20746869732066756e6374696f6e00000000000000000000000000000000000081525060400191505060405180910390fd5b611da082610abd565b1515611e14576040517f08c379a000000000000000000000000000000000000000000000000000000000815260040180806020018281038252601f8152602001807f54686973206c697374696e67207761736e27742077686974656c69737465640081525060200191505060405180910390fd5b600081600301541480611e4b5750600260008260030154815260200190815260200160002060010160149054906101000a900460ff165b1515611ee5576040517f08c379a00000000000000000000000000000000000000000000000000000000081526004018080602001828103825260348152602001807f54686973206c697374696e6720697320696e20746865206d6964646c65206f6681526020017f2061206368616c6c656e67652073657373696f6e00000000000000000000000081525060400191505060405180910390fd5b611eee82614e26565b81600019167f8a51904a50ce4451be09dc08242bd2d5565b05cf0f4f5aa88c77f96fdf538b4260405160405180910390a25050565b600080600360008460001916600019168152602001908152602001600020600301549050600060036000856000191660001916815260200190815260200160002060030154118015611f9657506002600082815260200190815260200160002060010160149054906101000a900460ff16155b915050919050565b600181815481101515611fad57fe5b906000526020600020016000915090505481565b600080600080600080600360008a600019166000191681526020019081526020016000209450600660009054906101000a900473ffffffffffffffffffffffffffffffffffffffff1673ffffffffffffffffffffffffffffffffffffffff1663693ec85e6040518163ffffffff167c010000000000000000000000000000000000000000000000000000000002815260040180806020018281038252600a8152602001807f6d696e4465706f73697400000000000000000000000000000000000000000000815250602001915050602060405180830381600087803b1580156120a957600080fd5b505af11580156120bd573d6000803e3d6000fd5b505050506040513d60208110156120d357600080fd5b81019080805190602001909291905050509350600460009054906101000a900473ffffffffffffffffffffffffffffffffffffffff1673ffffffffffffffffffffffffffffffffffffffff1663095ea7b330866040518363ffffffff167c0100000000000000000000000000000000000000000000000000000000028152600401808373ffffffffffffffffffffffffffffffffffffffff1673ffffffffffffffffffffffffffffffffffffffff16815260200182815260200192505050602060405180830381600087803b1580156121ab57600080fd5b505af11580156121bf573d6000803e3d6000fd5b505050506040513d60208110156121d557600080fd5b810190808051906020019092919050505015156121f157600080fd5b6121fa89613100565b8061221357508460010160009054906101000a900460ff165b151561221e57600080fd5b6000856003015414806122555750600260008660030154815260200190815260200160002060010160149054906101000a900460ff165b151561226057600080fd5b83856002015410156122af5761227589614e26565b88600019167f4a9ee335af9e32f32f2229943dc7a0d3b5adf7e4c5c4062b372eae8c476d928660405160405180910390a260009550612b90565b600560009054906101000a900473ffffffffffffffffffffffffffffffffffffffff1673ffffffffffffffffffffffffffffffffffffffff166332ed3d60600660009054906101000a900473ffffffffffffffffffffffffffffffffffffffff1673ffffffffffffffffffffffffffffffffffffffff1663693ec85e6040518163ffffffff167c010000000000000000000000000000000000000000000000000000000002815260040180806020018281038252600a8152602001807f766f746551756f72756d00000000000000000000000000000000000000000000815250602001915050602060405180830381600087803b1580156123af57600080fd5b505af11580156123c3573d6000803e3d6000fd5b505050506040513d60208110156123d957600080fd5b8101908080519060200190929190505050600660009054906101000a900473ffffffffffffffffffffffffffffffffffffffff1673ffffffffffffffffffffffffffffffffffffffff1663693ec85e6040518163ffffffff167c010000000000000000000000000000000000000000000000000000000002815260040180806020018281038252600e8152602001807f636f6d6d697453746167654c656e000000000000000000000000000000000000815250602001915050602060405180830381600087803b1580156124ac57600080fd5b505af11580156124c0573d6000803e3d6000fd5b505050506040513d60208110156124d657600080fd5b8101908080519060200190929190505050600660009054906101000a900473ffffffffffffffffffffffffffffffffffffffff1673ffffffffffffffffffffffffffffffffffffffff1663693ec85e6040518163ffffffff167c010000000000000000000000000000000000000000000000000000000002815260040180806020018281038252600e8152602001807f72657665616c53746167654c656e000000000000000000000000000000000000815250602001915050602060405180830381600087803b1580156125a957600080fd5b505af11580156125bd573d6000803e3d6000fd5b505050506040513d60208110156125d357600080fd5b81019080805190602001909291905050506040518463ffffffff167c0100000000000000000000000000000000000000000000000000000000028152600401808481526020018381526020018281526020019350505050602060405180830381600087803b15801561264457600080fd5b505af1158015612658573d6000803e3d6000fd5b505050506040513d602081101561266e57600080fd5b8101908080519060200190929190505050925060e060405190810160405280606486600660009054906101000a900473ffffffffffffffffffffffffffffffffffffffff1673ffffffffffffffffffffffffffffffffffffffff1663693ec85e6040518163ffffffff167c010000000000000000000000000000000000000000000000000000000002815260040180806020018281038252600f8152602001807f64697370656e736174696f6e5063740000000000000000000000000000000000815250602001915050602060405180830381600087803b15801561275257600080fd5b505af1158015612766573d6000803e3d6000fd5b505050506040513d602081101561277c57600080fd5b81019080805190602001909291905050506064030281151561279a57fe5b0481526020013373ffffffffffffffffffffffffffffffffffffffff16815260200160001515815260200185815260200160008152602001600015158152602001600060010260001916815250600260008581526020019081526020016000206000820151816000015560208201518160010160006101000a81548173ffffffffffffffffffffffffffffffffffffffff021916908373ffffffffffffffffffffffffffffffffffffffff16021790555060408201518160010160146101000a81548160ff021916908315150217905550606082015181600201556080820151816003015560a08201518160040160006101000a81548160ff02191690831515021790555060c08201518160050190600019169055905050828560030181905550838560020160008282540392505081905550600460009054906101000a900473ffffffffffffffffffffffffffffffffffffffff1673ffffffffffffffffffffffffffffffffffffffff166323b872dd3330876040518463ffffffff167c0100000000000000000000000000000000000000000000000000000000028152600401808473ffffffffffffffffffffffffffffffffffffffff1673ffffffffffffffffffffffffffffffffffffffff1681526020018373ffffffffffffffffffffffffffffffffffffffff1673ffffffffffffffffffffffffffffffffffffffff1681526020018281526020019350505050602060405180830381600087803b1580156129c657600080fd5b505af11580156129da573d6000803e3d6000fd5b505050506040513d60208110156129f057600080fd5b81019080805190602001909291905050501515612a0c57600080fd5b600560009054906101000a900473ffffffffffffffffffffffffffffffffffffffff1673ffffffffffffffffffffffffffffffffffffffff16636148fed5846040518263ffffffff167c01000000000000000000000000000000000000000000000000000000000281526004018082815260200191505060a060405180830381600087803b158015612a9d57600080fd5b505af1158015612ab1573d6000803e3d6000fd5b505050506040513d60a0811015612ac757600080fd5b810190808051906020019092919080519060200190929190805190602001909291908051906020019092919080519060200190929190505050505050915091503373ffffffffffffffffffffffffffffffffffffffff1689600019167ff98a08756a3603420a080d66764f73deb1e30896c315cfed03e17f88f5eb30f7858b8b8787604051808681526020018060200184815260200183815260200182810382528686828181526020019250808284378201915050965050505050505060405180910390a38295505b50505050509392505050565b600080600360008560001916600019168152602001908152602001600020600501600084600019166000191681526020019081526020016000206000015411905092915050565b600080600360008460001916600019168152602001908152602001600020600301549050612c1083611f23565b1515612c1f5760009150612cee565b600560009054906101000a900473ffffffffffffffffffffffffffffffffffffffff1673ffffffffffffffffffffffffffffffffffffffff1663ee684830826040518263ffffffff167c010000000000000000000000000000000000000000000000000000000002815260040180828152602001915050602060405180830381600087803b158015612cb057600080fd5b505af1158015612cc4573d6000803e3d6000fd5b505050506040513d6020811015612cda57600080fd5b810190808051906020019092919050505091505b50919050565b600080600080600080600360008960001916600019168152602001908152602001600020600301549450612d288888612b9c565b935042600360008a600019166000191681526020019081526020016000206005016000896000191660001916815260200190815260200160002060000154109250612d7388886131cb565b91506000851480612dab5750600115156002600087815260200190815260200160002060010160149054906101000a900460ff161515145b9050838015612db75750825b8015612dc1575081155b8015612dca5750805b15612dd85760019550612ddd565b600095505b505050505092915050565b6000806000809054906101000a900473ffffffffffffffffffffffffffffffffffffffff1673ffffffffffffffffffffffffffffffffffffffff163373ffffffffffffffffffffffffffffffffffffffff161415612f9657826040518082805190602001908083835b602083101515612e765780518252602082019150602081019050602083039250612e51565b6001836020036101000a03801982511681845116808217855250505050505090500191505060405180910390209150600090505b6001805490508160ff161015612f6357816000191660018260ff16815481101515612ed157fe5b90600052602060002001546000191614151515612f56576040517f08c379a000000000000000000000000000000000000000000000000000000000815260040180806020018281038252600f8152602001807f5375626a6563742065786973746564000000000000000000000000000000000081525060200191505060405180910390fd5b8080600101915050612eaa565b60018290806001815401808255809150509060018203906000526020600020016000909192909190915090600019169055505b505050565b600080600360008460001916600019168152602001908152602001600020600301549150600060010260026000848152602001908152602001600020600501546000191614156130095760036000846000191660001916815260200190815260200160002060040154613021565b60026000838152602001908152602001600020600501545b905061302d8382612cf4565b1561304a5761303c83826150f2565b61304583615149565b6130fb565b61305383612be3565b1561306657613061836151e7565b6130fa565b6040517f08c379a00000000000000000000000000000000000000000000000000000000081526004018080602001828103825260268152602001807f436f756c646e27742075706461746520737461747573206f662074686973206c81526020017f697374696e67000000000000000000000000000000000000000000000000000081525060400191505060405180910390fd5b5b505050565b60008060036000846000191660001916815260200190815260200160002060000154119050919050565b6000809054906101000a900473ffffffffffffffffffffffffffffffffffffffff1681565b60026020528060005260406000206000915090508060000154908060010160009054906101000a900473ffffffffffffffffffffffffffffffffffffffff16908060010160149054906101000a900460ff16908060020154908060030154908060040160009054906101000a900460ff16908060050154905087565b600060036000846000191660001916815260200190815260200160002060010160009054906101000a900460ff16801561324957506003600084600019166000191681526020019081526020016000206005016000836000191660001916815260200190815260200160002060010160009054906101000a900460ff165b905092915050565b600060036000856000191660001916815260200190815260200160002090503373ffffffffffffffffffffffffffffffffffffffff168160010160019054906101000a900473ffffffffffffffffffffffffffffffffffffffff1673ffffffffffffffffffffffffffffffffffffffff1614151561335d576040517f08c379a000000000000000000000000000000000000000000000000000000000815260040180806020018281038252602e8152602001807f596f7520646f6e27742068617665207065726d697373696f6e20746f2072756e81526020017f20746869732066756e6374696f6e00000000000000000000000000000000000081525060400191505060405180910390fd5b81816005016000856000191660001916815260200190815260200160002060020160008282540192505081905550818160020160008282540192505081905550600460009054906101000a900473ffffffffffffffffffffffffffffffffffffffff1673ffffffffffffffffffffffffffffffffffffffff166323b872dd3330856040518463ffffffff167c0100000000000000000000000000000000000000000000000000000000028152600401808473ffffffffffffffffffffffffffffffffffffffff1673ffffffffffffffffffffffffffffffffffffffff1681526020018373ffffffffffffffffffffffffffffffffffffffff1673ffffffffffffffffffffffffffffffffffffffff1681526020018281526020019350505050602060405180830381600087803b15801561349657600080fd5b505af11580156134aa573d6000803e3d6000fd5b505050506040513d60208110156134c057600080fd5b8101908080519060200190929190505050151561356b576040517f08c379a000000000000000000000000000000000000000000000000000000000815260040180806020018281038252602b8152602001807f436f756c646e2774207472616e736665722074686520746f6b656e20746f207481526020017f686520526567697374727900000000000000000000000000000000000000000081525060400191505060405180910390fd5b3373ffffffffffffffffffffffffffffffffffffffff16836000191685600019167f7ff1b9d454ca0ce65eb433ff3bfbe2efacc4b193c67c0c3b19491e8cf42815c68585600201548660050160008a600019166000191681526020019081526020016000206002015460405180848152602001838152602001828152602001935050505060405180910390a450505050565b600080600060036000866000191660001916815260200190815260200160002060050160008560001916600019168152602001908152602001600020600001546003600087600019166000191681526020019081526020016000206005016000866000191660001916815260200190815260200160002060010160009054906101000a900460ff1660036000886000191660001916815260200190815260200160002060050160008760001916600019168152602001908152602001600020600201549250925092509250925092565b60036020528060005260406000206000915090508060000154908060010160009054906101000a900460ff16908060010160019054906101000a900473ffffffffffffffffffffffffffffffffffffffff16908060020154908060030154908060040154905086565b60006002600083815260200190815260200160002060010160149054906101000a900460ff161580156138315750600560009054906101000a900473ffffffffffffffffffffffffffffffffffffffff1673ffffffffffffffffffffffffffffffffffffffff1663ee684830836040518263ffffffff167c010000000000000000000000000000000000000000000000000000000002815260040180828152602001915050602060405180830381600087803b1580156137f557600080fd5b505af1158015613809573d6000803e3d6000fd5b505050506040513d602081101561381f57600080fd5b81019080805190602001909291905050505b151561383c57600080fd5b6000600560009054906101000a900473ffffffffffffffffffffffffffffffffffffffff1673ffffffffffffffffffffffffffffffffffffffff1663053e71a6846040518263ffffffff167c010000000000000000000000000000000000000000000000000000000002815260040180828152602001915050602060405180830381600087803b1580156138cf57600080fd5b505af11580156138e3573d6000803e3d6000fd5b505050506040513d60208110156138f957600080fd5b810190808051906020019092919050505014156139315760026000838152602001908152602001600020600201546002029050613966565b600260008381526020019081526020016000206000015460026000848152602001908152602001600020600201546002020390505b919050565b600060036000856000191660001916815260200190815260200160002090503373ffffffffffffffffffffffffffffffffffffffff168160010160019054906101000a900473ffffffffffffffffffffffffffffffffffffffff1673ffffffffffffffffffffffffffffffffffffffff16141515613a77576040517f08c379a000000000000000000000000000000000000000000000000000000000815260040180806020018281038252602e8152602001807f596f7520646f6e27742068617665207065726d697373696f6e20746f2072756e81526020017f20746869732066756e6374696f6e00000000000000000000000000000000000081525060400191505060405180910390fd5b80600201548211151515613b19576040517f08c379a00000000000000000000000000000000000000000000000000000000081526004018080602001828103825260238152602001807f446f6e2774206861766520656e6f75676820746f6b656e20746f20776974686481526020017f726177000000000000000000000000000000000000000000000000000000000081525060400191505060405180910390fd5b8060050160008460001916600019168152602001908152602001600020600201548211151515613bd7576040517f08c379a00000000000000000000000000000000000000000000000000000000081526004018080602001828103825260338152602001807f446f6e2774206861766520656e6f75676820746f6b656e206f6620746869732081526020017f7375626a65637420746f2077697468647261770000000000000000000000000081525060400191505060405180910390fd5b600660009054906101000a900473ffffffffffffffffffffffffffffffffffffffff1673ffffffffffffffffffffffffffffffffffffffff1663693ec85e6040518163ffffffff167c010000000000000000000000000000000000000000000000000000000002815260040180806020018281038252600a8152602001807f6d696e4465706f73697400000000000000000000000000000000000000000000815250602001915050602060405180830381600087803b158015613c9957600080fd5b505af1158015613cad573d6000803e3d6000fd5b505050506040513d6020811015613cc357600080fd5b8101908080519060200190929190505050828260050160008660001916600019168152602001908152602001600020600201540310151515613d93576040517f08c379a00000000000000000000000000000000000000000000000000000000081526004018080602001828103825260358152602001807f5468652072656d61696e7420746f6b656e73206e65656420746f20626520677281526020017f6561746572207468616e206d696e4465706f736974000000000000000000000081525060400191505060405180910390fd5b81816002016000828254039250508190555081816005016000856000191660001916815260200190815260200160002060020160008282540392505081905550600460009054906101000a900473ffffffffffffffffffffffffffffffffffffffff1673ffffffffffffffffffffffffffffffffffffffff1663a9059cbb33846040518363ffffffff167c0100000000000000000000000000000000000000000000000000000000028152600401808373ffffffffffffffffffffffffffffffffffffffff1673ffffffffffffffffffffffffffffffffffffffff16815260200182815260200192505050602060405180830381600087803b158015613e9857600080fd5b505af1158015613eac573d6000803e3d6000fd5b505050506040513d6020811015613ec257600080fd5b81019080805190602001909291905050501515613f6d576040517f08c379a000000000000000000000000000000000000000000000000000000000815260040180806020018281038252602b8152602001807f436f756c646e2774207472616e736665722074686520746f6b656e20746f207481526020017f686520526567697374727900000000000000000000000000000000000000000081525060400191505060405180910390fd5b3373ffffffffffffffffffffffffffffffffffffffff16836000191685600019167fb843ba66df48a9c99eb560e6b006f3f0e3239d12dbe4c0816ab40747567aa7a38585600201548660050160008a600019166000191681526020019081526020016000206002015460405180848152602001838152602001828152602001935050505060405180910390a450505050565b600660009054906101000a900473ffffffffffffffffffffffffffffffffffffffff1681565b600080339150600460009054906101000a900473ffffffffffffffffffffffffffffffffffffffff1673ffffffffffffffffffffffffffffffffffffffff1663095ea7b330878460020154016040518363ffffffff167c0100000000000000000000000000000000000000000000000000000000028152600401808373ffffffffffffffffffffffffffffffffffffffff1673ffffffffffffffffffffffffffffffffffffffff16815260200182815260200192505050602060405180830381600087803b1580156140f657600080fd5b505af115801561410a573d6000803e3d6000fd5b505050506040513d602081101561412057600080fd5b810190808051906020019092919050505015156141cb576040517f08c379a00000000000000000000000000000000000000000000000000000000081526004018080602001828103825260278152602001807f436f756c646e277420617070726f766520746f6b656e20746f2074686973207281526020017f656769737472790000000000000000000000000000000000000000000000000081525060400191505060405180910390fd5b6141d486614ae7565b1515614248576040517f08c379a00000000000000000000000000000000000000000000000000000000081526004018080602001828103825260198152602001807f54686973207375626a656374206973206e6f742076616c69640000000000000081525060200191505060405180910390fd5b61425287876131cb565b1515156142ed576040517f08c379a00000000000000000000000000000000000000000000000000000000081526004018080602001828103825260288152602001807f54686973206c697374696e67207375626a6563742068617320616c726561647981526020017f206578697374656400000000000000000000000000000000000000000000000081525060400191505060405180910390fd5b600660009054906101000a900473ffffffffffffffffffffffffffffffffffffffff1673ffffffffffffffffffffffffffffffffffffffff1663693ec85e6040518163ffffffff167c010000000000000000000000000000000000000000000000000000000002815260040180806020018281038252600a8152602001807f6d696e4465706f73697400000000000000000000000000000000000000000000815250602001915050602060405180830381600087803b1580156143af57600080fd5b505af11580156143c3573d6000803e3d6000fd5b505050506040513d60208110156143d957600080fd5b81019080805190602001909291905050508510151515614487576040517f08c379a00000000000000000000000000000000000000000000000000000000081526004018080602001828103825260218152602001807f4e756d626572206f66206465706f6973697473206973206e6f7420656e6f756781526020017f680000000000000000000000000000000000000000000000000000000000000081525060400191505060405180910390fd5b6144918787612b9c565b151515614506576040517f08c379a00000000000000000000000000000000000000000000000000000000081526004018080602001828103825260198152602001807f54686973206170706c69636174696f6e20776173206d6164650000000000000081525060200191505060405180910390fd5b6003600088600019166000191681526020019081526020016000209050818160010160016101000a81548173ffffffffffffffffffffffffffffffffffffffff021916908373ffffffffffffffffffffffffffffffffffffffff16021790555085816004018160001916905550614682600660009054906101000a900473ffffffffffffffffffffffffffffffffffffffff1673ffffffffffffffffffffffffffffffffffffffff1663693ec85e6040518163ffffffff167c010000000000000000000000000000000000000000000000000000000002815260040180806020018281038252600d8152602001807f6170706c7953746167654c656e00000000000000000000000000000000000000815250602001915050602060405180830381600087803b15801561463857600080fd5b505af115801561464c573d6000803e3d6000fd5b505050506040513d602081101561466257600080fd5b8101908080519060200190929190505050426157aa90919063ffffffff16565b816005016000886000191660001916815260200190815260200160002060000181905550848160050160008860001916600019168152602001908152602001600020600201819055506147da600660009054906101000a900473ffffffffffffffffffffffffffffffffffffffff1673ffffffffffffffffffffffffffffffffffffffff1663693ec85e6040518163ffffffff167c010000000000000000000000000000000000000000000000000000000002815260040180806020018281038252600d8152602001807f6170706c7953746167654c656e00000000000000000000000000000000000000815250602001915050602060405180830381600087803b15801561479057600080fd5b505af11580156147a4573d6000803e3d6000fd5b505050506040513d60208110156147ba57600080fd5b8101908080519060200190929190505050426157aa90919063ffffffff16565b816000018190555084816002016000828254019250508190555060008160030181905550600460009054906101000a900473ffffffffffffffffffffffffffffffffffffffff1673ffffffffffffffffffffffffffffffffffffffff166323b872dd8260010160019054906101000a900473ffffffffffffffffffffffffffffffffffffffff1630886040518463ffffffff167c0100000000000000000000000000000000000000000000000000000000028152600401808473ffffffffffffffffffffffffffffffffffffffff1673ffffffffffffffffffffffffffffffffffffffff1681526020018373ffffffffffffffffffffffffffffffffffffffff1673ffffffffffffffffffffffffffffffffffffffff1681526020018281526020019350505050602060405180830381600087803b15801561491b57600080fd5b505af115801561492f573d6000803e3d6000fd5b505050506040513d602081101561494557600080fd5b810190808051906020019092919050505015156149f0576040517f08c379a000000000000000000000000000000000000000000000000000000000815260040180806020018281038252602b8152602001807f436f756c646e2774207472616e736665722074686520746f6b656e20746f207481526020017f686520526567697374727900000000000000000000000000000000000000000081525060400191505060405180910390fd5b8173ffffffffffffffffffffffffffffffffffffffff16866000191688600019167f69d97aa4bd5e49221563e8735e7fc66f3fee6f34ab76b828e2c5a4f1c03779d3888560050160008c600019166000191681526020019081526020016000206000015489896040518085815260200184815260200180602001828103825284848281815260200192508082843782019150509550505050505060405180910390a450505050505050565b600460009054906101000a900473ffffffffffffffffffffffffffffffffffffffff1681565b600560009054906101000a900473ffffffffffffffffffffffffffffffffffffffff1681565b600080600090505b6001805490508160ff161015614b4157826000191660018260ff16815481101515614b1657fe5b9060005260206000200154600019161415614b345760019150614b46565b8080600101915050614aef565b600091505b50919050565b60008060006003600086600019166000191681526020019081526020016000209250826005016000856000191660001916815260200190815260200160002060010160009054906101000a900460ff1615614bdc57836000191685600019167fd3dec49177b97149b70d0e84d4dcb47e9de13527f7801d71cb8898a22e575b4d60405160405180910390a3614c13565b836000191685600019167f0ad0ed58bcc4635e0aff603eaff2f2ac61d6694b756d86a8170fcacd291fca5a60405160405180910390a35b8260010160019054906101000a900473ffffffffffffffffffffffffffffffffffffffff169150826005016000856000191660001916815260200190815260200160002060020154905082600501600085600019166000191681526020019081526020016000206000808201600090556001820160006101000a81549060ff0219169055600282016000905550506000811115614e1f57600460009054906101000a900473ffffffffffffffffffffffffffffffffffffffff1673ffffffffffffffffffffffffffffffffffffffff1663a9059cbb83836040518363ffffffff167c0100000000000000000000000000000000000000000000000000000000028152600401808373ffffffffffffffffffffffffffffffffffffffff1673ffffffffffffffffffffffffffffffffffffffff16815260200182815260200192505050602060405180830381600087803b158015614d6f57600080fd5b505af1158015614d83573d6000803e3d6000fd5b505050506040513d6020811015614d9957600080fd5b81019080805190602001909291905050501515614e1e576040517f08c379a000000000000000000000000000000000000000000000000000000000815260040180806020018281038252601b8152602001807f436f756c646e2774207472616e736665722074686520746f6b656e000000000081525060200191505060405180910390fd5b5b5050505050565b600080600060036000856000191660001916815260200190815260200160002092508260010160009054906101000a900460ff1615614e955783600019167fd1ffb796b7108387b2f02adf47b4b81a1690cf2a190422c87a4f670780103e6360405160405180910390a2614ec7565b83600019167f2e5ec035f6eac8ff1cf7cdf36cfeca7c85413f9f67652dc2c13d20f337204a2660405160405180910390a25b8260010160019054906101000a900473ffffffffffffffffffffffffffffffffffffffff169150826002015490506003600085600019166000191681526020019081526020016000206000808201600090556001820160006101000a81549060ff02191690556001820160016101000a81549073ffffffffffffffffffffffffffffffffffffffff0219169055600282016000905560038201600090556004820160009055505060008111156150ec57600460009054906101000a900473ffffffffffffffffffffffffffffffffffffffff1673ffffffffffffffffffffffffffffffffffffffff1663a9059cbb83836040518363ffffffff167c0100000000000000000000000000000000000000000000000000000000028152600401808373ffffffffffffffffffffffffffffffffffffffff1673ffffffffffffffffffffffffffffffffffffffff16815260200182815260200192505050602060405180830381600087803b15801561503c57600080fd5b505af1158015615050573d6000803e3d6000fd5b505050506040513d602081101561506657600080fd5b810190808051906020019092919050505015156150eb576040517f08c379a000000000000000000000000000000000000000000000000000000000815260040180806020018281038252601b8152602001807f436f756c646e2774207472616e736665722074686520746f6b656e000000000081525060200191505060405180910390fd5b5b50505050565b60016003600084600019166000191681526020019081526020016000206005016000836000191660001916815260200190815260200160002060010160006101000a81548160ff0219169083151502179055505050565b60036000826000191660001916815260200190815260200160002060010160009054906101000a900460ff1615156151ad5780600019167fa7bc1d57d9006d9d248707c7b6828c1bab8c51719cc06d78c82a3ee891ef967c60405160405180910390a25b600160036000836000191660001916815260200190815260200160002060010160006101000a81548160ff02191690831515021790555050565b6000806000806003600086600019166000191681526020019081526020016000206003015493506002600085815260200190815260200160002060040160009054906101000a900460ff1692506002600085815260200190815260200160002060050154915061525684613736565b905060016002600086815260200190815260200160002060010160146101000a81548160ff021916908315150217905550600560009054906101000a900473ffffffffffffffffffffffffffffffffffffffff1673ffffffffffffffffffffffffffffffffffffffff1663053e71a6856040518263ffffffff167c010000000000000000000000000000000000000000000000000000000002815260040180828152602001915050602060405180830381600087803b15801561531857600080fd5b505af115801561532c573d6000803e3d6000fd5b505050506040513d602081101561534257600080fd5b81019080805190602001909291905050506002600086815260200190815260200160002060030181905550600560009054906101000a900473ffffffffffffffffffffffffffffffffffffffff1673ffffffffffffffffffffffffffffffffffffffff166349403183856040518263ffffffff167c010000000000000000000000000000000000000000000000000000000002815260040180828152602001915050602060405180830381600087803b1580156153fe57600080fd5b505af1158015615412573d6000803e3d6000fd5b505050506040513d602081101561542857600080fd5b81019080805190602001909291905050501561554257806003600087600019166000191681526020019081526020016000206002016000828254019250508190555082156154c3578060036000876000191660001916815260200190815260200160002060050160008460001916600019168152602001908152602001600020600201600082825401925050819055506154c285836150f2565b5b6154cc85615149565b8385600019167fc4497224aa78dd50c9b3e344aab02596201ca1e6dca4057a91a6c02f83f4f6c160026000888152602001908152602001600020600001546002600089815260200190815260200160002060030154604051808381526020018281526020019250505060405180910390a36157a3565b8215615557576155528583614b4c565b615561565b61556085614e26565b5b600460009054906101000a900473ffffffffffffffffffffffffffffffffffffffff1673ffffffffffffffffffffffffffffffffffffffff1663a9059cbb6002600087815260200190815260200160002060010160009054906101000a900473ffffffffffffffffffffffffffffffffffffffff16836040518363ffffffff167c0100000000000000000000000000000000000000000000000000000000028152600401808373ffffffffffffffffffffffffffffffffffffffff1673ffffffffffffffffffffffffffffffffffffffff16815260200182815260200192505050602060405180830381600087803b15801561565c57600080fd5b505af1158015615670573d6000803e3d6000fd5b505050506040513d602081101561568657600080fd5b81019080805190602001909291905050501515615731576040517f08c379a00000000000000000000000000000000000000000000000000000000081526004018080602001828103825260348152602001807f436f756c646e2774207472616e73666572207468652072657761726420746f6b81526020017f656e20746f20746865206368616c6c656e67657200000000000000000000000081525060400191505060405180910390fd5b8385600019167f362a12431f779a2baff4f77f75ba7960ae993a5c41b425df11f7fd0af2b9cbe660026000888152602001908152602001600020600001546002600089815260200190815260200160002060030154604051808381526020018281526020019250505060405180910390a35b5050505050565b60008082840190508381101515156157be57fe5b80915050929150505600a165627a7a723058207880639d082766f6fd5d902bdddd5cdf6da292da73fef3c4edf7c90f50cdadf50029",
  "source": "pragma solidity ^0.4.11;\n\nimport \"tokens/eip20/EIP20Interface.sol\";\nimport \"./Parameterizer.sol\";\nimport \"plcrvoting/PLCRVoting.sol\";\nimport \"zeppelin/math/SafeMath.sol\";\n\ncontract SingleRegistry {\n    using SafeMath for uint;\n\n    // ------\n    // EVENTS\n    // ------\n    event _Application(bytes32 indexed listingHash, bytes32 indexed subjectHash, uint deposit, uint appEndDate, string data, address indexed applicant);\n    event _Challenge(bytes32 indexed listingHash, uint challengeID, string data, uint commitEndDate, uint revealEndDate, address indexed challenger);\n    event _ChallengeSubject(bytes32 indexed listingHash, bytes32 indexed subjectHash, uint challengeID, string data, uint commitEndDate, uint revealEndDate, address indexed challenger);\n    event _Deposit(bytes32 indexed listingHash, bytes32 indexed subjectHash, uint added, uint newTotal, uint newSubjectTotal, address indexed owner);\n    event _Withdrawal(bytes32 indexed listingHash, bytes32 indexed subjectHash, uint withdrew, uint newTotal, uint newSubjectTotal, address indexed owner);\n    event _ApplicationWhitelisted(bytes32 indexed listingHash);\n    event _ApplicationSubjectRemoved(bytes32 indexed listingHash, bytes32 indexed subjectHash);\n    event _ListingSubjectRemoved(bytes32 indexed listingHash, bytes32 indexed subjectHash);\n    event _SubjectListingWithdrawn(bytes32 indexed listingHash, bytes32 indexed subjectHash);\n    event _TouchAndRemovedSubject(bytes32 indexed listingHash, bytes32 indexed subjectHash);\n\n    event _ApplicationRemoved(bytes32 indexed listingHash);\n    event _ListingRemoved(bytes32 indexed listingHash);\n    event _ListingWithdrawn(bytes32 indexed listingHash);\n    event _TouchAndRemoved(bytes32 indexed listingHash);\n\n    event _ChallengeFailed(bytes32 indexed listingHash, uint indexed challengeID, uint rewardPool, uint totalTokens);\n    event _ChallengeSucceeded(bytes32 indexed listingHash, uint indexed challengeID, uint rewardPool, uint totalTokens);\n\n    // ---------------\n    // STATE VARIABLES\n    // ---------------\n    address public owner;\n    bytes32[] public subjects = [keccak256(\"Algebra\"), keccak256(\"Chemistry\")];\n\n    struct Subject {\n        uint subjectExpiry;            // Maps subject to expiry time\n        bool subjectWhitelisted;       // Indicates subject registry status\n        uint subjectUnstakedDeposit;   // Maps subject to the deposit amount        \n    }\n\n    struct Listing {\n        uint applicationExpiry; // Expiration date of apply stage\n        bool whitelisted;       // Indicates registry status\n        address owner;          // Owner of Listing\n        uint unstakedDeposit;   // Number of tokens in the listing not locked in a challenge\n        uint challengeID;       // Corresponds to a PollID in PLCRVoting\n        bytes32 subject;        // Applying subject\n\n        mapping (bytes32 => Subject) subjects;  // Maps subjectHashes to associated subject data\n    }\n\n    struct Challenge {\n        uint rewardPool;        // (remaining) Pool of tokens to be distributed to winning voters\n        address challenger;     // Owner of Challenge\n        bool resolved;          // Indication of if challenge is resolved\n        uint stake;             // Number of tokens at stake for either party during challenge\n        uint totalTokens;       // (remaining) Number of tokens used in voting by the winning side\n        bool isSubject;         // Indication of if challenged subject list\n        bytes32 subject;        // The current subject which is challenged\n        mapping(address => bool) tokenClaims; // Indicates whether a voter has claimed a reward yet\n    }\n\n    // Maps challengeIDs to associated challenge data\n    mapping(uint => Challenge) public challenges;\n\n    // Maps listing Hahses to associcated listingHash data\n    mapping(bytes32 => Listing) public listings;\n\n    // Global Variables\n    EIP20Interface public token;\n    PLCRVoting public voting;\n    Parameterizer public parameterizer;\n    string public name;\n\n    modifier restricted() {\n        if (msg.sender == owner) _;\n    }\n\n    // ------------\n    // CONSTRUCTOR:\n    // ------------\n    /**\n    @dev Constructor        Sets the addresses for token, voting, and parameterizer\n    @param _tokenAddr       Address of the TCR's intrinsic ERC20 token\n    @param _plcrAddr        Address of a PLCR voting contract for the provided token\n    @param _paramsAddr      Address of a Parameterizer contract\n    */\n    function SingleRegistry(\n        address _tokenAddr,\n        address _plcrAddr,\n        address _paramsAddr,\n        string _name\n    ) public {\n        owner = msg.sender;\n\n        token = EIP20Interface(_tokenAddr);\n        voting = PLCRVoting(_plcrAddr);\n        parameterizer = Parameterizer(_paramsAddr);\n        name = _name;\n    }\n\n    //\n    // OWNER INTERFACE\n    //\n    function newSubject(string _subject) public restricted {\n        // TODO: Implement this method\n\n        bytes32 subjectName = keccak256(_subject);\n\n        // Check if subject has already existed\n        for (uint8 i = 0; i < subjects.length; i++) {\n            require(subjects[i] != subjectName, \"Subject existed\");\n        }\n\n        // Add new subject\n        subjects.push(subjectName);\n    }\n\n    //\n    // PUBLISHER INTERFACE\n    //\n\n    /**\n    @dev        Allows expert to start a subject. Takes tokens from expert and sets apply stage end time\n     */\n    function apply(bytes32 _listingHash, bytes32 _subjectHash, uint _amount, string _data) external {\n        /* Allow registry to use the token */\n        address sender = msg.sender;\n        require(token.approve(this, listing.unstakedDeposit + _amount), \"Couldn't approve token to this registry\");\n\n        // TODO: Check if subject is valid\n        require(isValidSubject(_subjectHash), \"This subject is not valid\");\n\n        // TODO: Check if subject is white listed\n        require(!isSubjectWhitelisted(_listingHash, _subjectHash), \"This listing subject has already existed\");\n\n        // TODO: Check number of deposit tokens\n        require(_amount >= parameterizer.get(\"minDeposit\"), \"Number of depoisits is not enough\");\n\n        require(!subjectAppWasMade(_listingHash, _subjectHash), \"This application was made\");        \n\n        // TODO: Sets owner\n        Listing storage listing = listings[_listingHash];\n        listing.owner = sender;\n        listing.subject = _subjectHash;\n\n        // TODO: Sets apply stage end time\n        listing.subjects[_subjectHash].subjectExpiry = block.timestamp.add(parameterizer.get(\"applyStageLen\"));\n        listing.subjects[_subjectHash].subjectUnstakedDeposit = _amount;\n\n        listing.applicationExpiry = block.timestamp.add(parameterizer.get(\"applyStageLen\"));\n        listing.unstakedDeposit += _amount;\n\n        // Reset challenge id\n        listing.challengeID = 0;\n\n        // TODO: Transfers tokens from user to Registry contract\n        require(token.transferFrom(listing.owner, this, _amount), \"Couldn't transfer the token to the Registry\");\n\n        // TODO: Emit event\n        emit _Application(_listingHash, _subjectHash, _amount, listing.subjects[_subjectHash].subjectExpiry, _data, sender);\n    }\n\n    /**\n    @dev        Allows the owner of the listingHash to increaase their unstaked deposit\n    */\n    function deposit(bytes32 _listingHash, bytes32 _subjectHash, uint _amount) external {\n        Listing storage listing = listings[_listingHash];\n\n        require(listing.owner == msg.sender, \"You don't have permission to run this function\");\n\n        listing.subjects[_subjectHash].subjectUnstakedDeposit += _amount;\n        listing.unstakedDeposit += _amount;\n\n        require(token.transferFrom(msg.sender, this, _amount), \"Couldn't transfer the token to the Registry\");\n\n        emit _Deposit(_listingHash, _subjectHash, _amount, listing.unstakedDeposit, listing.subjects[_subjectHash].subjectUnstakedDeposit, msg.sender);\n    }\n\n    /**\n    @dev        Allows the owner of a listing Hash to decrease their unstaked deposit\n    */\n    function withdraw(bytes32 _listingHash, bytes32 _subjectHash, uint _amount) external {\n        Listing storage listing = listings[_listingHash];\n\n        require(listing.owner == msg.sender, \"You don't have permission to run this function\");\n        require(_amount <= listing.unstakedDeposit, \"Don't have enough token to withdraw\");\n        require(_amount <= listing.subjects[_subjectHash].subjectUnstakedDeposit, \"Don't have enough token of this subject to withdraw\");\n\n        require(listing.subjects[_subjectHash].subjectUnstakedDeposit - _amount >= parameterizer.get(\"minDeposit\"), \"The remaint tokens need to be greater than minDeposit\");\n\n        listing.unstakedDeposit -= _amount;\n        listing.subjects[_subjectHash].subjectUnstakedDeposit -= _amount;\n\n        require(token.transfer(msg.sender, _amount), \"Couldn't transfer the token to the Registry\");\n\n        emit _Withdrawal(_listingHash, _subjectHash, _amount, listing.unstakedDeposit, listing.subjects[_subjectHash].subjectUnstakedDeposit, msg.sender);\n    }\n\n    /**\n    @dev        Allows the owner of the listingHash to remove the subject from the white list\n    */\n    function exitSubject(bytes32 _listingHash, bytes32 _subjectHash) external {\n        Listing storage listing = listings[_listingHash];\n\n        require(msg.sender == listing.owner, \"You don't have permission to run this function\");\n        require(isSubjectWhitelisted(_listingHash, _subjectHash), \"This subject wasn't whitelisted\");\n\n        // Cannot exit during ongoing challenge\n        require(listing.challengeID == 0 || challenges[listing.challengeID].resolved, \"This listing is in the middle of a challenge session\");\n\n        // Remove listing subject & return tokens\n        resetSubjectListing(_listingHash, _subjectHash);\n\n        emit _SubjectListingWithdrawn(_listingHash, _subjectHash);\n    }\n\n    /**\n    @dev        Allows the owner of the listingHash to remove the listingHash from the white list\n    */\n    function exit(bytes32 _listingHash) external {\n        Listing storage listing = listings[_listingHash];\n\n        require(msg.sender == listing.owner, \"You don't have permission to run this function\");\n        require(isWhitelisted(_listingHash), \"This listing wasn't whitelisted\");\n\n        // Cannot exit during ongoing challenge\n        require(listing.challengeID == 0 || challenges[listing.challengeID].resolved, \"This listing is in the middle of a challenge session\");\n\n        // Remove listingHash & return tokens\n        resetListing(_listingHash);\n        \n        emit _ListingWithdrawn(_listingHash);\n    }\n\n    // -----------------------\n    // TOKEN HOLDER INTERFACE:\n    // -----------------------\n    /**\n    @dev                Starts a poll for a listingHash which is either in the apply stage or\n                        already in the whitelist. Tokens are taken from the challenger and the\n                        applicant's deposits are locked.\n    @param _listingHash The listingHash being challenged, whether listed or in application\n    @param _data        Extra data relevant to the challenge. Think IPFS hashes.\n    */\n    function challenge(bytes32 _listingHash, string _data) external returns (uint challengeID) {\n\n        Listing storage listing = listings[_listingHash];\n        uint deposit = parameterizer.get(\"minDeposit\");\n\n        /* Allow registry to use the token */\n        require(token.approve(this, deposit));\n\n        // Listing must be in apply stage or already on the whitelist\n        require(appWasMade(_listingHash) || listing.whitelisted);\n        // Prevent multiple challenges\n        require(listing.challengeID == 0 || challenges[listing.challengeID].resolved);\n\n        if (listing.unstakedDeposit < deposit) {\n            // Not enough tokens, listingHash auto-delisted\n            resetListing(_listingHash);\n            _TouchAndRemoved(_listingHash);\n            return 0;\n        }\n\n        // Starts poll\n        uint pollID = voting.startPoll(\n            parameterizer.get(\"voteQuorum\"),\n            parameterizer.get(\"commitStageLen\"),\n            parameterizer.get(\"revealStageLen\")\n        );\n\n        challenges[pollID] = Challenge({\n            challenger: msg.sender,\n            rewardPool: ((100 - parameterizer.get(\"dispensationPct\")) * deposit) / 100,\n            stake: deposit,\n            resolved: false,\n            totalTokens: 0,\n            isSubject: false,\n            subject: 0x0\n        });\n\n        // Updates listingHash to store most recent challenge\n        listing.challengeID = pollID;\n\n        // Locks tokens for listingHash during challenge\n        listing.unstakedDeposit -= deposit;\n\n        // Takes tokens from challenger\n        require(token.transferFrom(msg.sender, this, deposit));\n\n        var (commitEndDate, revealEndDate,) = voting.pollMap(pollID);\n\n        _Challenge(_listingHash, pollID, _data, commitEndDate, revealEndDate, msg.sender);\n        return pollID;\n    }\n\n    function challengeSubject(bytes32 _listingHash, bytes32 _subjectHash, string _data) external returns (uint challengeID) {\n        \n        Listing storage listing = listings[_listingHash];\n        uint deposit = parameterizer.get(\"minDeposit\");\n\n        /* Allow registry to use the token */\n        require(token.approve(this, deposit), \"Couldn't approve token to this registry\");\n\n        // TODO: Listing must be in apply stage or already on the whitelist\n        require(\n            subjectAppWasMade(_listingHash, _subjectHash) || listing.subjects[_subjectHash].subjectWhitelisted, \"This application is not ready to be challenge\"\n            );\n\n        // Prevent multiple challenges\n        require(listing.challengeID == 0 || challenges[listing.challengeID].resolved, \"This application is in the middle of another challenge\");\n\n        if (listing.subjects[_subjectHash].subjectUnstakedDeposit < deposit) {\n            // TODO: Remove this subject\n            resetSubjectListing(_listingHash, _subjectHash);\n            emit _TouchAndRemovedSubject(_listingHash, _subjectHash);\n            return 0;\n        }\n\n        // Starts poll\n        uint pollID = voting.startPoll(\n            parameterizer.get(\"voteQuorum\"),\n            parameterizer.get(\"commitStageLen\"),\n            parameterizer.get(\"revealStageLen\")\n        );\n\n        challenges[pollID] = Challenge({\n            challenger: msg.sender,\n            rewardPool: ((100 - parameterizer.get(\"dispensationPct\")) * deposit) / 100,\n            stake: deposit,\n            resolved: false,\n            totalTokens: 0,\n            isSubject: true,\n            subject: _subjectHash\n        });\n\n        // Updates listingHash to store most recent challenge\n        listing.challengeID = pollID;\n\n        // Locks tokens for listingHash during challenge\n        listing.subjects[_subjectHash].subjectUnstakedDeposit -= deposit;\n        listing.unstakedDeposit -= deposit;\n\n        // Takes tokens from challenger\n        require(token.transferFrom(msg.sender, this, deposit), \"Couldn't transfer token\");\n\n        var (commitEndDate, revealEndDate,) = voting.pollMap(pollID);\n\n        // emit _ChallengeSubject(_listingHash, _subjectHash, pollID, _data, commitEndDate, revealEndDate, msg.sender);\n        emit _Challenge(_listingHash, pollID, _data, commitEndDate, revealEndDate, msg.sender);\n\n        return pollID;\n    }\n\n    /**\n    @dev                Updates a listingHash's status from 'application' to 'listing' or resolves\n                        a challenge if one exists.\n    @param _listingHash The listingHash whose status is being updated\n    */\n    function updateStatus(bytes32 _listingHash) public {\n        uint challengeID = listings[_listingHash].challengeID;\n        bytes32 subjectHash = challenges[challengeID].subject != 0x0 ? challenges[challengeID].subject : listings[_listingHash].subject;\n\n        if (canSubjectBeWhitelisted(_listingHash, subjectHash)) {\n            whitelistSubject(_listingHash, subjectHash);\n            whitelistApplication(_listingHash);\n        } else if (challengeCanBeResolved(_listingHash)) {\n            resolveChallenge(_listingHash);\n        } else {\n            revert(\"Couldn't update status of this listing\");\n        }\n    }\n\n    // ----------------\n    // TOKEN FUNCTIONS:\n    // ----------------\n\n    // TODO: Implement functions for token here\n\n    //\n    // GETTERS\n    //\n\n    /**\n    @dev                Determines whether the given listingHash be whitelisted.\n    @param _listingHash The listingHash whose status is to be examined\n    */\n    function canSubjectBeWhitelisted(bytes32 _listingHash, bytes32 _subjectHash) view public returns (bool) {\n        uint challengeID = listings[_listingHash].challengeID;\n\n        bool wasMade = subjectAppWasMade(_listingHash, _subjectHash);\n        bool isEnded = (listings[_listingHash].subjects[_subjectHash].subjectExpiry < now);\n        bool whitelisted = isSubjectWhitelisted(_listingHash, _subjectHash);\n        bool doneChallenged = (challengeID == 0 || challenges[challengeID].resolved == true);\n\n        // Ensures that the application was made,\n        // the application period has ended,\n        // the listingHash can be whitelisted,\n        // and either: the challengeID == 0, or the challenge has been resolved.\n        \n        if (\n            wasMade\n            &&\n            isEnded\n            &&\n            !whitelisted\n            &&\n            doneChallenged\n        ) {\n            return true;\n        }\n\n        return false;\n    }\n\n    /**\n    @dev                Returns true if the application/listingHash has an unresolved challenge\n    @param _listingHash The listingHash whose status is to be examined\n    */\n    function challengeExists(bytes32 _listingHash) view public returns (bool) {\n        uint challengeID = listings[_listingHash].challengeID;\n\n        return (listings[_listingHash].challengeID > 0 && !challenges[challengeID].resolved);\n    }\n\n    /**\n    @dev                Determines whether voting has concluded in a challenge for a given\n                        listingHash. Throws if no challenge exists.\n    @param _listingHash A listingHash with an unresolved challenge\n    */\n    function challengeCanBeResolved(bytes32 _listingHash) view public returns (bool) {\n        uint challengeID = listings[_listingHash].challengeID;\n\n        if (!challengeExists(_listingHash)) {\n            return false;\n        }\n\n        return voting.pollEnded(challengeID);\n    }\n\n    /**\n    @dev        Check if the subject is in the valid subject list\n    */\n    function isValidSubject(bytes32 _subject) view public returns (bool valid) {\n        for (uint8 i = 0; i < subjects.length; i++) {\n            if (subjects[i] == _subject) {\n                return true;\n            }\n        }\n\n        return false;\n    }\n\n    /**\n    @dev        Check if the expert has already been listing in a subject\n    */\n    function isSubjectWhitelisted(bytes32 _listingHash, bytes32 _subjectHash) view public returns (bool whitelisted) {\n        return listings[_listingHash].whitelisted && listings[_listingHash].subjects[_subjectHash].subjectWhitelisted;\n    }\n\n    /**\n    @dev                Returns true if the provided listingHash is whitelisted\n    @param _listingHash The listingHash whose status is to be examined\n    */\n    function isWhitelisted(bytes32 _listingHash) view public returns (bool whitelisted) {\n        return listings[_listingHash].whitelisted;\n    }\n\n    /**\n    @dev                Returns true if apply was called for this listingHash\n    @param _listingHash The listingHash whose status is to be examined\n    */\n    function appWasMade(bytes32 _listingHash) view public returns (bool exists) {\n        return listings[_listingHash].applicationExpiry > 0;\n    }\n\n    /**\n    @dev                Returns true if apply was called for this listingHash and subjectHash\n    @param _listingHash The listingHash whose status is to be examined\n    */\n    function subjectAppWasMade(bytes32 _listingHash, bytes32 _subjectHash) view public returns (bool exists) {\n        return listings[_listingHash].subjects[_subjectHash].subjectExpiry > 0;\n    }\n\n    /**\n    @dev                Determines the number of tokens awarded to the winning party in a challenge.\n    @param _challengeID The challengeID to determine a reward for\n    */\n    function determineReward(uint _challengeID) public view returns (uint) {\n        require(!challenges[_challengeID].resolved && voting.pollEnded(_challengeID));\n\n        // Edge case, nobody voted, give all tokens to the challenger.\n        if (voting.getTotalNumberOfTokensForWinningOption(_challengeID) == 0) {\n            return 2 * challenges[_challengeID].stake;\n        }\n\n        return (2 * challenges[_challengeID].stake) - challenges[_challengeID].rewardPool;\n    }\n\n    /**\n    @dev                    Getter for Listing subejcts mappings\n    @param _listingHash     The hash of the listing\n    @param _subjectHash     The hash of the subject\n    */\n    function listingSubjects(bytes32 _listingHash, bytes32 _subjectHash) public view returns(uint, bool, uint) {\n        return (\n            listings[_listingHash].subjects[_subjectHash].subjectExpiry,\n            listings[_listingHash].subjects[_subjectHash].subjectWhitelisted,\n            listings[_listingHash].subjects[_subjectHash].subjectUnstakedDeposit\n        );\n    }\n\n    //\n    // PRIVATE FUNCTIONS\n    //\n    /**\n    @dev                Determines the winner in a challenge. Rewards the winner tokens and\n                        either whitelists or de-whitelists the listingHash.\n    @param _listingHash A listingHash with a challenge that is to be resolved\n    */\n    function resolveChallenge(bytes32 _listingHash) private {\n        uint challengeID = listings[_listingHash].challengeID;\n        bool challengeSubject = challenges[challengeID].isSubject;\n        bytes32 subjectHash = challenges[challengeID].subject;\n\n        // Calculates the winner's reward,\n        // which is: (winner's full stake) + (dispensationPct * loser's stake)\n        uint reward = determineReward(challengeID);\n\n        // Sets flag on challenge being processed\n        challenges[challengeID].resolved = true;\n\n        // Stores the total tokens used for voting by the winning side for reward purposes\n        challenges[challengeID].totalTokens =\n            voting.getTotalNumberOfTokensForWinningOption(challengeID);\n\n        // Case: challenge failed\n        if (voting.isPassed(challengeID)) {\n\n            // TODO: Unlock stake so that it can be retrieved by the applicant\n            listings[_listingHash].unstakedDeposit += reward;\n\n            if (challengeSubject) {\n                // TODO: Unlock stake so that it can be retrieved by the applicant\n                listings[_listingHash].subjects[subjectHash].subjectUnstakedDeposit += reward;\n\n                // TODO: Whitelist subject\n                whitelistSubject(_listingHash, subjectHash);\n            }\n\n            // TODO: Whitelist application\n            whitelistApplication(_listingHash);\n            \n            _ChallengeFailed(_listingHash, challengeID, challenges[challengeID].rewardPool, challenges[challengeID].totalTokens);\n        }\n\n        // Case: challenge succeeded or nobody voted\n        else {\n\n            if (challengeSubject) {\n                // Remove subject\n                resetSubjectListing(_listingHash, subjectHash);\n\n            } else {\n                // Remove from the list\n                resetListing(_listingHash);\n            }\n            // Transfer the reward to the challenger\n            require(token.transfer(challenges[challengeID].challenger, reward), \"Couldn't transfer the reward token to the challenger\");\n\n            emit _ChallengeSucceeded(_listingHash, challengeID, challenges[challengeID].rewardPool, challenges[challengeID].totalTokens);\n        }\n\n    }\n\n    function whitelistSubject(bytes32 _listingHash, bytes32 _subjectHash) private {\n        listings[_listingHash].subjects[_subjectHash].subjectWhitelisted = true;\n    }\n\n    /**\n    @dev                Called by updateStatus() if the applicationExpiry date passed without a\n                        challenge being made. Called by resolveChallenge() if an\n                        application/listing beat a challenge.\n    @param _listingHash The listingHash of an application/listingHash to be whitelisted\n    */\n    function whitelistApplication(bytes32 _listingHash) private {\n        if (!listings[_listingHash].whitelisted) { \n            emit _ApplicationWhitelisted(_listingHash); \n            }\n        listings[_listingHash].whitelisted = true;\n    }\n\n    /**\n    @dev                Deletes a subjectHash from the whitelist and transfers tokens back to owner\n    @param _listingHash The listing hash to delete\n    @param _subjectHash The subject hash to delete\n    */\n    function resetSubjectListing(bytes32 _listingHash, bytes32 _subjectHash) private {\n        Listing storage listing = listings[_listingHash];\n\n        // Emit events before deleting listing to check whether is whitelisted\n        if (listing.subjects[_subjectHash].subjectWhitelisted) {\n            emit _ListingSubjectRemoved(_listingHash, _subjectHash);\n        } else {\n            emit _ApplicationSubjectRemoved(_listingHash, _subjectHash);\n        }\n\n        // Deleting subject to prevent reentry\n        address owner = listing.owner;\n        uint unstakedDeposit = listing.subjects[_subjectHash].subjectUnstakedDeposit;\n        delete listing.subjects[_subjectHash];\n\n        // Transfers any remaining balance back to the owner\n        if (unstakedDeposit > 0){\n            require(token.transfer(owner, unstakedDeposit), \"Couldn't transfer the token\");\n        }\n    }\n\n    /**\n    @dev                Deletes a listingHash from the whitelist and transfers tokens back to owner\n    @param _listingHash The listing hash to delete\n    */\n    function resetListing(bytes32 _listingHash) private {\n        Listing storage listing = listings[_listingHash];\n\n        // Emit events before deleting listing to check whether is whitelisted\n        if (listing.whitelisted) {\n            emit _ListingRemoved(_listingHash);\n        } else {\n            emit _ApplicationRemoved(_listingHash);\n        }\n\n        // Deleting listing to prevent reentry\n        address owner = listing.owner;\n        uint unstakedDeposit = listing.unstakedDeposit;\n        delete listings[_listingHash];\n\n        // Transfers any remaining balance back to the owner\n        if (unstakedDeposit > 0){\n            require(token.transfer(owner, unstakedDeposit), \"Couldn't transfer the token\");\n        }\n    }\n \n}",
  "sourcePath": "/Users/ho_oh/Developments/gotit/knp/expert-tcr/contracts/SingleRegistry.sol",
  "compiler": {
    "name": "solc",
    "version": "0.4.24+commit.e67f0147.Emscripten.clang"
  },
  "schemaVersion": "2.0.1",
  "updatedAt": "2018-09-07T12:02:51.062Z"
}